{
  "contractName": "SafeContract",
  "abi": [
    {
      "inputs": [],
      "payable": false,
      "stateMutability": "nonpayable",
      "type": "constructor"
    },
    {
      "anonymous": false,
      "inputs": [
        {
          "indexed": false,
          "name": "_addr",
          "type": "address"
        },
        {
          "indexed": false,
          "name": "_value",
          "type": "uint256"
        }
      ],
      "name": "Withdrawal",
      "type": "event"
    },
    {
      "constant": false,
      "inputs": [
        {
          "name": "_resetTime",
          "type": "uint256"
        },
        {
          "name": "_maxWithdrawal",
          "type": "uint256"
        }
      ],
      "name": "init",
      "outputs": [],
      "payable": true,
      "stateMutability": "payable",
      "type": "function"
    },
    {
      "constant": false,
      "inputs": [],
      "name": "deposit",
      "outputs": [],
      "payable": true,
      "stateMutability": "payable",
      "type": "function"
    },
    {
      "constant": false,
      "inputs": [
        {
          "name": "_to",
          "type": "address"
        },
        {
          "name": "_value",
          "type": "uint256"
        }
      ],
      "name": "withdraw",
      "outputs": [],
      "payable": false,
      "stateMutability": "nonpayable",
      "type": "function"
    }
  ],
  "bytecode": "0x608060405234801561001057600080fd5b50336000806101000a81548173ffffffffffffffffffffffffffffffffffffffff021916908373ffffffffffffffffffffffffffffffffffffffff160217905550610612806100606000396000f300608060405260043610610057576000357c0100000000000000000000000000000000000000000000000000000000900463ffffffff168063a5843f081461005c578063d0e30db014610086578063f3fef3a314610090575b600080fd5b61008460048036038101908080359060200190929190803590602001909291905050506100dd565b005b61008e610244565b005b34801561009c57600080fd5b506100db600480360381019080803573ffffffffffffffffffffffffffffffffffffffff169060200190929190803590602001909291905050506102e1565b005b34600160003373ffffffffffffffffffffffffffffffffffffffff1673ffffffffffffffffffffffffffffffffffffffff1681526020019081526020016000206000018190555081600160003373ffffffffffffffffffffffffffffffffffffffff1673ffffffffffffffffffffffffffffffffffffffff1681526020019081526020016000206001018190555080600160003373ffffffffffffffffffffffffffffffffffffffff1673ffffffffffffffffffffffffffffffffffffffff1681526020019081526020016000206002018190555080600160003373ffffffffffffffffffffffffffffffffffffffff1673ffffffffffffffffffffffffffffffffffffffff1681526020019081526020016000206003018190555042600160003373ffffffffffffffffffffffffffffffffffffffff1673ffffffffffffffffffffffffffffffffffffffff168152602001908152602001600020600401819055505050565b61029934600160003373ffffffffffffffffffffffffffffffffffffffff1673ffffffffffffffffffffffffffffffffffffffff168152602001908152602001600020600001546105af90919063ffffffff16565b600160003373ffffffffffffffffffffffffffffffffffffffff1673ffffffffffffffffffffffffffffffffffffffff16815260200190815260200160002060000181905550565b600160003373ffffffffffffffffffffffffffffffffffffffff1673ffffffffffffffffffffffffffffffffffffffff16815260200190815260200160002060040154600160003373ffffffffffffffffffffffffffffffffffffffff1673ffffffffffffffffffffffffffffffffffffffff168152602001908152602001600020600101544203111561040c5780600160003373ffffffffffffffffffffffffffffffffffffffff1673ffffffffffffffffffffffffffffffffffffffff16815260200190815260200160002060020154101515156103c057600080fd5b42600160003373ffffffffffffffffffffffffffffffffffffffff1673ffffffffffffffffffffffffffffffffffffffff1681526020019081526020016000206004018190555061045e565b80600160003373ffffffffffffffffffffffffffffffffffffffff1673ffffffffffffffffffffffffffffffffffffffff168152602001908152602001600020600301541015151561045d57600080fd5b5b6104b381600160003373ffffffffffffffffffffffffffffffffffffffff1673ffffffffffffffffffffffffffffffffffffffff168152602001908152602001600020600301546105cd90919063ffffffff16565b600160003373ffffffffffffffffffffffffffffffffffffffff1673ffffffffffffffffffffffffffffffffffffffff168152602001908152602001600020600301819055508173ffffffffffffffffffffffffffffffffffffffff166108fc829081150290604051600060405180830381858888f1935050505015801561053f573d6000803e3d6000fd5b507f7fcf532c15f0a6db0bd6d0e038bea71d30d808c7d98cb3bf7268a95bf5081b658282604051808373ffffffffffffffffffffffffffffffffffffffff1673ffffffffffffffffffffffffffffffffffffffff1681526020018281526020019250505060405180910390a15050565b60008082840190508381101515156105c357fe5b8091505092915050565b60008282111515156105db57fe5b8183039050929150505600a165627a7a723058208574fa5814b45009c2aa0629aca0ed8405da7437d300da6766895a5d7092e8fc0029",
  "source": "// time lock contract\n// limited withdrawal amounts in a certain time period\n\n// @todo: multisig withdrawals\n// @todo: sms notifications\nimport './Libraries/SafeMath.sol';\n\npragma solidity 0.4.23;\n\ncontract SafeContract {\n\t using SafeMath for uint256;\n\n\taddress owner;\n\tmapping (address => Safe) mySafe;\n\n\tevent Withdrawal(address _addr, uint _value);\n\n\tstruct Safe{\n\t\tuint balance;\n\t\tuint resetTime; // eg. 1 week, 1 month\n\t\tuint maxWithdrawal; //max withdrawal allowed within a time period\n\t\tuint canWithdraw;\n\t\tuint lastReset;\n\t}\n\n\tconstructor() public {\n\t\towner = msg.sender;\n\t}\n\n\tfunction init(uint _resetTime, uint _maxWithdrawal) public payable {\n\t\tmySafe[msg.sender].balance = msg.value;\n\t\tmySafe[msg.sender].resetTime = _resetTime;\n\t\tmySafe[msg.sender].maxWithdrawal = _maxWithdrawal;\n\t\tmySafe[msg.sender].canWithdraw = _maxWithdrawal;\n\t\tmySafe[msg.sender].lastReset = block.timestamp;\n\t}\n\n\tfunction deposit() public payable {\n\t\tmySafe[msg.sender].balance = mySafe[msg.sender].balance.add(msg.value);\n\t}\n\n\tfunction withdraw(address _to, uint _value) public  {\n\t\tif(now - mySafe[msg.sender].resetTime > mySafe[msg.sender].lastReset){\n\t\t\trequire(mySafe[msg.sender].maxWithdrawal >= _value);\n\t\t\tmySafe[msg.sender].lastReset = now;\n\t\t}\n\t\telse {\n\t\t\trequire(mySafe[msg.sender].canWithdraw >= _value);\n\t\t}\n\t\tmySafe[msg.sender].canWithdraw = mySafe[msg.sender].canWithdraw.sub(_value);\n\t\t_to.transfer(_value);\n\t\temit Withdrawal(_to, _value);\n\t}\n}",
  "sourcePath": "/home/elizabeth/Documents/safe-contract/contracts/SafeContract.sol",
  "compiler": {
    "name": "solc",
    "version": "0.4.23+commit.124ca40d.Emscripten.clang"
  },
  "schemaVersion": "2.0.0",
  "updatedAt": "2018-05-14T17:15:32.722Z"
}